:100000000C9471010C94C8080C949D080C9472080F
:100010000C9447080C941C080C94F1070C94C60728
:100020000C949B070C94A2010C94A2010C94A201C5
:100030000C94A2010C94A2010C94A2010C94A201B4
:100040000C94A2010C94A2010C94A2010C94A201A4
:100050000C94A2010C94A2010C94A2010C945107DF
:100060000C94A2010C941B070C94F1060C94A201B1
:100070000C94A2010C94A2010C94A2010C94A20174
:100080000C94A2010C94A2010C94A2010C94A20164
:100090000C94A2010C94A2010C94A2010C94F308FC
:1000A0000C94A2010C94A2010C94A2010C94A20144
:1000B0000C94A2010C94A2010C94A2010C94A20134
:1000C0000C94A2010C94A2010C94A2010C94A20124
:1000D0000C94A2010C94A2010C94A2010C94A20114
:1000E0000C94A2010C94C1050C9444040C9442039A
:1000F0000C945B040C94170A0C94A5010C94510405
:100100000C94AA030C944C040C94D3010C949D04FD
:100110000C94D2050C9446030C94B6050C94790308
:100120000C9457030C948D050C94C9020C944A034B
:100130000C9489040C946F040C947F040C94730346
:100140000C94DE040C9425050C94AF050C94650406
:100150000C94F3050C94B6040C9438030C944D03E2
:100160000C9461030C9493040C943E030C94AC0423
:100170000C9453030C947C020C9444020C9477046A
:100180000C9465030C945D030C94CA040C94E20176
:100190000C946F030C94C0040C94D5050C947D034F
:1001A0000C949C050C946B030C94A6010C94D40441
:1001B0000C9478030C948C050C94A4010C94F60117
:1001C00000002100240027002A002D003000330009
:1001D00001010000040107010A01000022002500BE
:1001E00028002B002E003100340002010000050120
:1001F00008010B01000020002300260029002C002C
:100200002F0032000001000003010601090105056D
:100210000505070508080808020202020A0A08087C
:1002200004040404010101010101010103030303AA
:1002300003030303040707070C0C0C0C0C0C0C0C39
:100240000202020206060606060606060B0B0B0B4A
:100250000B0B0B0B0102102020080810204010206F
:10026000408002010201080402010102040810207A
:100270004080804020100804020180040201804078
:1002800020100804020108040201010204081020E1
:100290004080010204081020408000000A0B02097F
:1002A0000C0D0E0807030401000000000000000010
:1002B000000000000000000000000000000000003E
:1002C00000000000000012111000000000000000FB
:1002D000000000000000000000000000000000001E
:1002E000170A11241FBECFEFD1E2DEBFCDBF00E061
:1002F0000CBF23E0A4E3B2E001C01D92A239B20713
:10030000E1F712E0A0E0B2E0E0E9FBE100E00BBFC2
:1003100002C007900D92A433B107D9F711E0C1E7ED
:10032000D1E000E006C021970109802FFE010E9464
:10033000BE0DC037D10780E00807A9F70E94500A18
:100340000C94C60D0C94000008950895AF92BF92CE
:10035000CF92DF92EF92FF920F931F93CF93DF9391
:100360006C017B018B01040F151FEB015E01AE18C0
:10037000BF08C017D10759F06991D601ED91FC91E2
:100380000190F081E02DC6011995892B79F7C501FF
:10039000DF91CF911F910F91FF90EF90DF90CF9061
:1003A000BF90AF900895FC01538D448D252F30E010
:1003B000842F90E0821B930B541710F0CF96089572
:1003C00001970895FC01918D828D981761F0A28D9F
:1003D000AE0FBF2FB11D5D968C91928D9F5F9F7365
:1003E000928F90E008958FEF9FEF0895FC01918D1B
:1003F000828D981731F0828DE80FF11D858D90E088
:1004000008958FEF9FEF08952FB7F8948091E5023C
:100410009091E602A091E702B091E8022FBF80938D
:10042000F1029093F202A093F302B093F40289EEEA
:1004300092E00E94F60197FF26C02FB7F8948091B2
:10044000E5029091E602A091E702B091E8022FBF89
:100450004091F1025091F2026091F3027091F40226
:10046000841B950BA60BB70B4091ED025091EE0249
:100470006091EF027091F00284179507A607B70705
:10048000B0F28FEF9FEF0895FC01918D228D892F9F
:1004900090E0805C9F4F821B91098F73992708958C
:1004A00089EE92E00E94440221E0892B09F420E0C9
:1004B000822F0895FC01A48DA80FB92FB11DA35A56
:1004C000BF4F2C91848D90E001968F739927848F74
:1004D000A689B7892C93A089B1898C918370806497
:1004E0008C93938D848D981306C00288F389E02D38
:1004F00080818F7D80830895EF92FF920F931F93E9
:10050000CF93DF93EC0181E0888F9B8D8C8D9813C6
:100510001AC0E889F989808185FF15C09FB7F894D2
:10052000EE89FF896083E889F9898081837080641E
:1005300080839FBF81E090E0DF91CF911F910F9169
:10054000FF90EF900895F62E0B8D10E00F5F1F4F78
:100550000F731127E02E8C8D8E110CC00FB607FC87
:10056000FACFE889F989808185FFF5CFCE010E9415
:100570005A02F1CFEB8DEC0FFD2FF11DE35AFF4F27
:10058000F0829FB7F8940B8FEA89FB8980818062A3
:10059000CFCFCF93DF93EC01888D8823B9F0AA8960
:1005A000BB89E889F9898C9185FD03C0808186FD2E
:1005B0000DC00FB607FCF7CF8C9185FFF2CF80817D
:1005C00085FFEDCFCE010E945A02E9CFDF91CF9196
:1005D000089580E090E0892B29F00E94500281115B
:1005E0000E94000080E090E0892B49F080E090E0DC
:1005F000892B29F00E94000081110E94000080E0F8
:1006000090E0892B49F080E090E0892B29F00E944E
:10061000000081110E94000080E090E0892B49F0E9
:1006200080E090E0892B29F00E94000081110C9459
:10063000000008958150823108F05AC0E82FF0E0A0
:100640008827EA5DFC4F8F4F0C94BE0D46034A038A
:1006500038033E03420378034D03530357035D03FE
:10066000610365036B036F037803730379037D03F1
:10067000809180008F778093800008958091800022
:100680008F7DF9CF80918000877FF5CF84B58F77FC
:1006900084BD089584B58F7DFBCF8091B0008F77A6
:1006A0008093B00008958091B0008F7DF9CF809144
:1006B00090008F77809390000895809190008F7DB7
:1006C000F9CF80919000877FF5CF8091A0008F7740
:1006D0008093A00008958091A0008F7DF9CF809134
:1006E000A000877FF5CF809120018F778093200134
:1006F0000895809120018F7DF9CF80912001877F1F
:10070000F5CFCF93DF93282F30E0F901E656FD4F68
:100710008491F901EC5AFD4FD491F901E25FFD4F4C
:10072000C491CC23A1F081110E941A03EC2FF0E0B8
:10073000EE0FFF1FEC50FE4FA591B491EC91ED230D
:1007400081E090E009F480E0DF91CF91089580E0AE
:1007500090E0FACF83E10E948103892B39F081E098
:1007600090E09093DA028093D90208951092DA0211
:100770001092D90208951F93CF93DF93282F30E072
:10078000F901E656FD4F8491F901EC5AFD4FD491E1
:10079000F901E25FFD4FC491CC23A9F0162F81111E
:1007A0000E941A03EC2FF0E0EE0FFF1FE652FE4FFF
:1007B000A591B4918FB7F894EC91111108C0D09520
:1007C000DE23DC938FBFDF91CF911F910895DE2B45
:1007D000F8CFCF93DF9390E0FC01EC5AFD4F2491CA
:1007E000825F9D4FFC0184918823D1F090E0880FB7
:1007F000991FFC01E054FE4FA591B491FC01E65213
:10080000FE4FC591D49161110EC09FB7F8948C91A1
:10081000E22FE0958E238C932881E223E8839FBF0B
:10082000DF91CF9108958FB7F894EC91E22BEC9380
:100830008FBFF6CF1F93CF93DF93182FEB0161E0AB
:100840000E94E903E12FF0E0E656FD4FE491E1500C
:10085000E23108F0B3C0F0E08827EE5CFB4F8F4F29
:100860000C94BE0D44044C0451045B046504DE0486
:100870006F0477047F04890493049D04AC04B604D8
:10088000DE04C004CA04D40484B5806884BDC7BD36
:10089000DF91CF911F91089584B5806284BDC8BD5A
:1008A000F7CF80918000806880938000D09389008A
:1008B000C0938800EDCF809180008062809380009B
:1008C000D0938B00C0938A00E3CF80918000886032
:1008D00080938000D0938D00C0938C00D9CF8091FD
:1008E000B00080688093B000C093B300D1CF8091F6
:1008F000B00080628093B000C093B400C9CF8091F3
:100900009000806880939000D0939900C0939800E5
:10091000BFCF80919000806280939000D0939B0025
:10092000C0939A00B5CF809190008860809390002A
:10093000D0939D00C0939C00ABCF8091A0008068B5
:100940008093A0008091A0008F7B8093A000D09323
:10095000A900C093A8009CCF8091A00080628093E2
:10096000A000D093AB00C093AA0092CF8091A000CA
:1009700088608093A000D093AD00C093AC0088CF76
:1009800080912001806880932001D0932901C09339
:1009900028017ECF80912001806280932001D09336
:1009A0002B01C0932A0174CF80912001886080932D
:1009B0002001D0932D01C0932C016ACF60E0C03894
:1009C000D1050CF061E0812FDF91CF911F910C9444
:1009D000BB0390917B00977F90937B00865380644C
:1009E00080937C0080917A00806480937A0080916B
:1009F0007A0086FDFCCF809178009091790008956F
:100A00003FB7F89480917D0290917E02A0917F0281
:100A1000B091800226B5A89B05C02F3F19F0019622
:100A2000A11DB11D3FBFBA2FA92F982F8827BC0148
:100A3000CD01620F711D811D911D42E0660F771F70
:100A4000881F991F4A95D1F708950895209159025A
:100A5000260F3327331F21323105ECF42091AD02EC
:100A6000FC0190E080E0243069F082E00895A091DC
:100A700059022191AC01475C5D4FA40FB52FB11D08
:100A80002C930196861798F380915902680F609312
:100A9000590280E0089581E008951092AD0281E04E
:100AA0008093AC021092A70261E084E10E94BB0334
:100AB00061E085E10E94BB03E9EBF0E080818E7F7D
:100AC000808380818D7F808388E48093B80085E473
:100AD0008093BC000895CF93DF9391E09093380208
:100AE0008823B9F0C091B800D091BA008091BC00C1
:100AF0008A7B8093BC0060E084E10E94BB0360E0DD
:100B000085E10E94BB030E944D05D093BA00C093BB
:100B1000B800DF91CF9108950895E091B4028091DB
:100B2000B302E81730F4F0E0EB54FD4F808190E021
:100B300008958FEF9FEF08959091B4028091B302D2
:100B40002FEF3FEF981748F4E92FF0E0EB54FD4FFB
:100B5000208130E09F5F9093B402C9010895809195
:100B6000B3029091B402891B990B0895CF93DF9340
:100B7000CB01EA01642F0E942605CE01DF91CF91BF
:100B80000895CF93DF931F92CDB7DEB7698361E0FD
:100B9000CE0101960E94260581E090E00F90DF9142
:100BA000CF91089590E080E00895CF93DF938FE395
:100BB0000E948103EC0183E00E948103C817D907DA
:100BC00061F4809136029091370201979093370239
:100BD00080933602DF91CF910895809136029091F3
:100BE00037020196F3CFCF93DF938EE30E94810308
:100BF000EC0182E00E948103C817D90761F480915B
:100C0000340290913502019690933502809334021C
:100C1000DF91CF9108958091340290913502019730
:100C2000F3CF81309105E9F466E970E084E00E9439
:100C30001A0466E970E085E00E941A0460E082E22E
:100C40000E94BB0360E084E20E94BB0361E083E298
:100C50000E94BB0361E085E20E94BB0362E370E097
:100C60001FC082309105F9F468EC70E084E00E94C6
:100C70001A0468EC70E085E00E941A0460E082E2E9
:100C80000E94BB0360E084E20E94BB0361E083E258
:100C90000E94BB0361E085E20E94BB0368EC70E048
:100CA00087E00C941A0483309105E9F466E470E05F
:100CB00084E00E941A0466E470E085E00E941A0451
:100CC00060E082E20E94BB0360E084E20E94BB031A
:100CD00060E083E20E94BB0361E085E20E94BB0307
:100CE00064E670E0DDCF84309105C1F466E470E025
:100CF00084E00E941A0466E470E085E00E941A0411
:100D000060E082E20E94BB0360E084E20E94BB03D9
:100D100061E083E20E94BB0360E0DFCF0797A1F4AC
:100D200066E970E084E00E941A0466E970E085E0FC
:100D30000E941A0460E082E20E94BB0360E084E249
:100D40000E94BB0360E0E5CF61E082E20E94BB034A
:100D500061E084E20E94BB0362E370E084E00E94F1
:100D60001A0462E370E085E00E941A0461E086E004
:100D700073CF85ED8093BC008091AF029091B0025B
:100D8000A091B102B091B2020796A11DB11D23E05E
:100D9000B695A795979587952A95D1F72091BC0090
:100DA00024FD03C01092AD0208954091AF0250910E
:100DB000B0026091B1027091B202452B462B472BD5
:100DC00069F30097A105B10541F025E32A95F1F7F4
:100DD00000000197A109B109E1CF8091AE020C9406
:100DE0006B051F920F920FB60F9211240BB60F9244
:100DF0002F933F934F935F936F937F938F939F9323
:100E0000AF93BF93EF93FF9389EE92E00E945A0253
:100E1000FF91EF91BF91AF919F918F917F916F91D2
:100E20005F914F913F912F910F900BBE0F900FBE8E
:100E30000F901F9018951F920F920FB60F921124CA
:100E40000BB60F922F938F939F93EF93FF93E091A5
:100E5000F902F091FA028081E091FF02F091000323
:100E600082FD1DC09081809102038F5F8F7320915E
:100E70000303821741F0E0910203F0E0E751FD4FD8
:100E8000958F80930203FF91EF919F918F912F9106
:100E90000F900BBE0F900FBE0F901F901895808182
:100EA000F2CF1F920F920FB60F9211242F933F9300
:100EB0008F939F93AF93BF938091E5029091E60249
:100EC000A091E702B091E80230917C0223E0230F69
:100ED0002D3758F50196A11DB11D20937C028093FA
:100EE000E5029093E602A093E702B093E8028091B6
:100EF0007D0290917E02A0917F02B09180020196C6
:100F0000A11DB11D80937D0290937E02A0937F026C
:100F1000B0938002BF91AF919F918F913F912F919C
:100F20000F900FBE0F901F90189526E8230F029682
:100F3000A11DB11DD2CF1F920F920FB60F92112497
:100F40000BB60F922F933F934F935F936F937F93C3
:100F50008F939F93AF93BF93EF93FF93E0910E0214
:100F6000F0910F021995FF91EF91BF91AF919F9171
:100F70008F917F916F915F914F913F912F910F9042
:100F80000BBE0F900FBE0F901F9018951F920F92DF
:100F90000FB60F9211240BB60F922F933F934F93DE
:100FA0005F936F937F938F939F93AF93BF93EF93D1
:100FB000FF93E0910C02F0910D021995FF91EF91D2
:100FC000BF91AF919F918F917F916F915F914F9161
:100FD0003F912F910F900BBE0F900FBE0F901F905F
:100FE00018951F920F920FB60F9211240BB60F9205
:100FF0002F933F934F935F936F937F938F939F9321
:10100000AF93BF93EF93FF93E0910202F09103023D
:101010001995FF91EF91BF91AF919F918F917F9122
:101020006F915F914F913F912F910F900BBE0F9059
:101030000FBE0F901F9018951F920F920FB60F9230
:1010400011240BB60F922F933F934F935F936F939F
:101050007F938F939F93AF93BF93EF93FF93E09111
:101060000002F09101021995FF91EF91BF91AF91AC
:101070009F918F917F916F915F914F913F912F91B0
:101080000F900BBE0F900FBE0F901F9018951F92E0
:101090000F920FB60F9211240BB60F922F933F931E
:1010A0004F935F936F937F938F939F93AF93BF9370
:1010B000EF93FF93E0910A02F0910B021995FF91D3
:1010C000EF91BF91AF919F918F917F916F915F91C0
:1010D0004F913F912F910F900BBE0F900FBE0F902D
:1010E0001F9018951F920F920FB60F9211240BB6F6
:1010F0000F922F933F934F935F936F937F938F93B1
:101100009F93AF93BF93EF93FF93E0910802F09109
:1011100009021995FF91EF91BF91AF919F918F9126
:101120007F916F915F914F913F912F910F900BBEE7
:101130000F900FBE0F901F9018951F920F920FB631
:101140000F9211240BB60F922F933F934F935F93FF
:101150006F937F938F939F93AF93BF93EF93FF937F
:10116000E0910602F09107021995FF91EF91BF916E
:10117000AF919F918F917F916F915F914F913F912F
:101180002F910F900BBE0F900FBE0F901F901895D0
:101190001F920F920FB60F9211240BB60F922F933E
:1011A0003F934F935F936F937F938F939F93AF93EF
:1011B000BF93EF93FF93E0910402F091050219951C
:1011C000FF91EF91BF91AF919F918F917F916F911F
:1011D0005F914F913F912F910F900BBE0F900FBEDB
:1011E0000F901F9018951F920F920FB60F92112417
:1011F0000BB60F922F933F934F935F936F937F9311
:101200008F939F93AF93BF93EF93FF938091B90018
:10121000887F803609F44DC008F040C0883209F458
:10122000A9C028F5803109F49DC0C8F4882309F4C9
:10123000FBC0883009F496C0FF91EF91BF91AF9148
:101240009F918F917F916F915F914F913F912F91DE
:101250000F900BBE0F900FBE0F901F901895883106
:1012600009F488C0803241F78093AB0214C0803407
:1012700009F49DC040F48033B9F38833E9F68093D4
:10128000AB0285ECB0C0803509F485C0883509F41F
:1012900096C0883489F60E94B906CECF883909F401
:1012A0008CC038F5883729F050F4883611F0803733
:1012B00019F683E08093AD0210927B0257C0883804
:1012C00009F47BC0803919F0803809F0B5CF8091DE
:1012D0007B02803208F071C0E0917B0281E08E0FCA
:1012E00080937B028091BB00F0E0E55AFD4F808344
:1012F0003DC0803B39F0E0F4803A09F479C0883A87
:1013000009F09ACF84E08093AD0210925A021092B5
:101310005902E0918302F09184021995809159025B
:1013200081110FC081E0809359021092390209C0E7
:10133000803C09F4A6CF883C09F4A3CF883B09F090
:101340007BCFE0915A0281E08E0F80935A02F0E049
:10135000E75CFD4F80818093BB0090915A028091A1
:10136000590229C08091A8028093BB0085EC80932C
:10137000BC0062CF9091AA028091A902981758F5FB
:10138000E091AA0281E08E0F8093AA02F0E0E95773
:10139000FD4F8081E9CFE091AA0281E08E0F80931A
:1013A000AA028091BB00F0E0E957FD4F8083909145
:1013B000AA028091A9029817C8F285E8D8CFE091D7
:1013C000AA0281E08E0F8093AA028091BB00F0E018
:1013D000E957FD4F80838091AC0281115CCF81E0A1
:1013E0008093A70284EA8093BC001092AD0224CFC0
:1013F00085EC8093BC001092AD0280917B0280321C
:1014000030F4E0917B02F0E0E55AFD4F10826091EC
:101410007B0270E0E0918102F09182028BE592E024
:10142000199510927B0208CF1092AB0234CFE9EEEF
:10143000F2E01382128288EE93E0A0E0B0E08483B1
:101440009583A683B78324E132E03183208325ECA2
:1014500030E03587248724EC30E03787268720EC7E
:1014600030E0318B208B21EC30E0338B228B22EC6F
:1014700030E0358B248B26EC30E0378B268B118EB9
:10148000128E138E148EE6E8F3E0138212828483A8
:101490009583A683B78386E292E091838083089543
:1014A000789484B5826084BD84B5816084BD85B53F
:1014B000826085BD85B5816085BD80916E0081604B
:1014C00080936E00109281008091810082608093F1
:1014D00081008091810081608093810080918000F3
:1014E0008160809380008091B10084608093B1001E
:1014F0008091B00081608093B00080919100826003
:1015000080939100809191008160809391008091FF
:1015100090008160809390008091A1008260809310
:10152000A1008091A10081608093A1008091A00022
:1015300081608093A00080912101826080932101CD
:10154000809121018160809321018091200181603F
:101550008093200180917A00846080937A0080914A
:101560007A00826080937A0080917A008160809313
:101570007A0080917A00806880937A001092C1008E
:1015800060E082E00E94E90360E08EE30E94E903EC
:1015900060E083E00E94E90360E08FE30E94E903DA
:1015A00060E083E10E94E90360E080E40E94E903D7
:1015B00060E081E40E94E90361E082E00E94BB03F5
:1015C00061E08EE30E94BB0361E083E00E94BB0305
:1015D00061E08FE30E94BB0361E083E10E94BB03F3
:1015E00061E080E40E94BB0361E081E40E94BB03F0
:1015F00061E086E00E94E90361E084E00E94E90383
:1016000061E082E20E94E90361E083E20E94E90373
:1016100061E085E00E94E90361E084E20E94E90361
:1016200061E085E20E94E90361E087E00E94E9034E
:1016300083EF95E0909301028093000280916A000D
:101640008C7F816080936A00EC9A85ED95E09093A1
:1016500003028093020280916A00837F84608093FA
:101660006A00ED9A8AEA93E0909309028093080257
:10167000809169008F7C806180936900EA9A109262
:10168000B4021092B30210928602109285020E9458
:101690004D0584EA91E0909384028093830285EA69
:1016A00091E090938202809381026EE170E084E089
:1016B0000E941A046EE170E085E00E941A04E09135
:1016C000F902F091FA0282E08083E091F502F09154
:1016D000F6021082E091F702F091F8028FEC80831D
:1016E00010920103E091FD02F091FE0286E08083FA
:1016F000E091FB02F091FC02808180618083E091A7
:10170000FB02F091FC02808188608083E091FB0203
:10171000F091FC02808180688083E091FB02F0916F
:10172000FC0280818F7D808361E082E20E94BB03A6
:1017300061E084E20E94BB03DD24D39488E0E82EBC
:10174000F12C44244A9492E0592E25EE722E35EC69
:10175000632EC1E0D0E002E010E089EE92E00E944A
:101760004402181619060CF059C00E940402FC012C
:1017700097FDF1C08D32910521F0C0970A9708F0CE
:10178000E2C0812C912C5401C12CE130F105D9F03B
:10179000ED32F10509F4DCC0CF01C0970A9798F447
:1017A000AAE0B0E0A50194010E94A40D4F01FF0F33
:1017B000AA08BB08860E971EA81EB91E20E3821A2F
:1017C0009108A108B10889EE92E00E94E2010E940E
:1017D0000402FC01C0970A97C0F2E130F105A9F2BA
:1017E000CC2041F0B094A09490948094811C911CE2
:1017F000A11CB11CC4011092E4021092E3022091DA
:10180000E1023091E2028216930609F493C1892B1A
:1018100009F490C19092E2028092E1028091E30289
:101820009091E40201969093E4028093E302843F56
:10183000914041F4F092E202E092E1021092E4025F
:101840001092E3028AE30E94E9049093E0028093FD
:10185000DF028BE30E94E9049093DE028093DD02B5
:101860008CE30E94E9049093DC028093DB0281E424
:101870000E9481030E9400054B015C018091AD0232
:1018800081116DC0D092AD02D092AC024092AB02F9
:101890001092AA025092A902D092A8028091A802A6
:1018A00080618093A8028091A702813009F0DAC09C
:1018B0001092A7020E9400054B015C018091A802D2
:1018C0008093BB008091AF029091B002A091B102D1
:1018D000B091B202892B8A2B8B2BA1F00E940005BC
:1018E0002091AF023091B0024091B1025091B2020A
:1018F000681979098A099B09261737074807590784
:1019000008F44EC08091BC0083FDD8CF6092BC002B
:101910000E9400054B015C018091AD02813009F409
:10192000A4C08091AA02833008F0C1C08091AA02AD
:10193000A7E8B2E0E5EBF2E090E09817B1F12D9165
:1019400021939F5FFACF89EE92E00E94E2010DCFD2
:10195000CC24C39438CF812C912C54014BCF80914F
:10196000AF029091B002A091B102B091B202892B66
:101970008A2B8B2B09F482CF0E9400052091AF02A5
:101980003091B0024091B1025091B20268197909C8
:101990008A099B09261737074807590708F06ECFB1
:1019A0008091AE020E946B0580E01092B402809399
:1019B000B30286E893E00E949C0586E893E00E94CB
:1019C0009C0586E893E00E949C058091DF0290913F
:1019D000E0029C01295C31092336310508F069C019
:1019E0002091DD023091DE022B5F31092336310573
:1019F00008F05FC02091DB023091DC02295C3109E4
:101A00002336310508F055C02091D9023091DA0211
:101A1000232B09F04EC0D093D802C093D702D093A5
:101A2000D602C093D5028091D5029091D60202973A
:101A300051F48091E1029091E202029721F4D09357
:101A4000E202C093E1028091D7029091D8020197FF
:101A500031F48091E1029091E2020E9411060E940D
:101A6000E9027BCE7092BC0053CF8091AF0290917F
:101A7000B002A091B102B091B202892B8A2B8B2BBC
:101A800009F44ACF0E9400052091AF023091B002C4
:101A90004091B1025091B202681979098A099B09F3
:101AA000261737074807590708F036CF79CF83E064
:101AB0003FCF885C910985369105C8F48091DD029D
:101AC0009091DE028A5F91098536910580F48091BC
:101AD000DB029091DC02885C91098536910538F42F
:101AE0008091D9029091DA02019709F09CCF10936E
:101AF000D8020093D7028091D5029091D602029726
:101B0000A1F088E090E00E9411068091E10290919E
:101B1000E202099709F097CFD093D802C093D70279
:101B20001093D6020093D5027ECFD093D802C093F3
:101B3000D70279CF8091E3029091E40201969093CD
:101B4000E4028093E3027ECE0E94AF0DA59F900D2C
:101B5000B49F900DA49F800D911D11240895A29F04
:101B6000B001B39FC001A39F700D811D1124911D71
:101B7000B29F700D811D1124911D0895EE0FFF1F5E
:101B8000881F8BBF0790F691E02D1994F894FFCF32
:101B900025052505250525052505250525052505F5
:101BA000000000007C02A601D301C9024402E20148
:101BB000F60100000000C105B605D2058C05AF0591
:041BC0009C058D05EE
:00000001FF
